:100000000C9467250C9498250C9498250C949825AD
:100010000C9498250C9498250C9498250C9498256C
:100020000C9498250C9498250C9498250C9498255C
:100030000C9498250C940A620C9498250C9498259D
:100040000C9498250C94B1CE0C9498250C9498257A
:100050000C9498250C9498250C94EC700C94ABCBD4
:100060000C9498250C94E7A30C9498250C9498254F
:100070000C9498250C9498250C9498250C9498250C
:100080000C9498250C9498250C9498250C949825FC
:100090000C9498250C9498250C9498250C949825EC
:1000A0000C9498250C9498250C9498250C949825DC
:1000B0000C9498250C9498250C9498250C949825CC
:1000C0000C9498250C9498250C9498250C949825BC
:1000D0000C9498250C9498250C9498250C949825AC
:1000E0000C9498250DFF0DFF18FF18FF18FF23FF34
:1000F00023FF23FF5BFF51FF51FF51FF4D715B71E8
:10010000777185719F71AD71C771CB71CD71D171EF
:10011000D971DCC8DFC8CEC8D2C8D8C816C9E3C8F0
:10012000E7C8EDC8F1C8F5C8FBC8FFC803C916C9C0
:1001300009C90DC911C9C7CACCCAD1CADBCAE5CA27
:100140005ECBEFCAF7CAFFCA09CB13CB1DCB2CCBB2
:1001500036CB5ECB40CB4ACB54CB084AD73B3BCEC9
:10016000016E84BCBFFDC12F3D6C74319ABD5683B6
:100170003DDA3D00C77F11BED9E4BB4C3E916BAA6E
:10018000AABE000000803F05A84CCDB2D44EB938BD
:1001900036A9020C50B9918688083CA6AAAA2ABEA4
:1001A000000000803F000D9425040D94DA024E41BA
:1001B0004E494E495459494E46CDCCCC3D0AD723E1
:1001C0003C17B7D13877CC2B329595E6241FB14F29
:1001D0000A000020410000C84200401C4620BCBE6E
:1001E0004CCA1B0E5AAEC59D740A00207A3A2000F4
:1001F00020793A200020783A2000426564002F00E0
:100200005344207072696E74696E672062797465F8
:1002100020004E6F74205344207072696E74696EB2
:1002200067002E0044656C6574696F6E20666169B5
:100230006C65642C2046696C653A200046696C65E3
:100240002064656C657465643A002E006F70656E9D
:10025000206661696C65642C2046696C653A2000F3
:10026000504944204175746F74756E652066696EDF
:100270006973686564212050757420746865206C0A
:10028000617374204B702C204B6920616E64204B8D
:100290006420636F6E7374616E74732066726F6D29
:1002A0002061626F766520696E746F20436F6E66A1
:1002B000696775726174696F6E2E680050494420D9
:1002C0004175746F74756E65206661696C65642133
:1002D0002074696D656F75740020403A006F6B2063
:1002E000543A006F6B20423A0050494420417574E3
:1002F0006F74756E65206661696C65642120546554
:100300006D706572617475726520746F6F206869B5
:10031000676800204B643A2000204B693A20002097
:100320004B703A200020436C61737369632050491D
:100330004420002054753A2000204B753A200020BC
:100340006D61783A2000206D696E3A200020643A91
:10035000200020626961733A20002200556E6B6EA6
:100360006F776E20636F6D6D616E643A202200536B
:100370006C6565702E2E2E00507265737320746F3D
:1003800020726573756D65005A204F6666736574DB
:10039000203A20007A5F6D61783A20007A5F6D69BB
:1003A0006E3A20005A204F6666736574005A204FDB
:1003B0006666736574206F6B006C636420636F6E98
:1003C00074726173742076616C75653A20007A5F8F
:1003D0006D61783A20007A5F70726F62653A200032
:1003E0007A5F6D696E3A2000795F6D61783A20001E
:1003F000795F6D696E3A2000785F6D61783A200010
:10040000785F6D696E3A2000204170707278204CE0
:10041000617965723A00205A3A0020593A00204327
:100420006F756E7420583A200020453A00205A3AE1
:100430000020593A00583A004649524D574152451A
:100440005F4E414D453A4D61726C696E20312E30E0
:100450002E322E3231204C756C7A426F7420534FFD
:10046000555243455F434F44455F55524C3A68747B
:100470007470733A2F2F636F64652E616C657068BA
:100480006F626A656374732E636F6D2F646966664D
:100490007573696F6E2F4D41524C494E2F2050524B
:1004A0004F544F434F4C5F56455253494F4E3A318C
:1004B0002E30204D414348494E455F545950453AEE
:1004C0004C756C7A426F742054415A20362045583E
:1004D0005452554445525F434F554E543A3120557E
:1004E0005549443A38343566303033632D6165629E
:1004F000642D346535332D613662392D37643039DA
:1005000038346664653630390A004C756C7A426F4F
:10051000742054415A2036204F66662E004C756C6C
:100520007A426F742054415A203620726561647992
:100530002E0042656420436F6F6C696E6720646FA4
:100540006E652E004265642048656174696E67209F
:10055000646F6E652E0020573A0020423A00204515
:100560003A00543A0042656420436F6F6C696E67CD
:100570002E2E2E004265642048656174696E672ED8
:100580002E2E00436F6F6C696E6720646F6E652E50
:100590000048656174696E6720646F6E652E002087
:1005A000573A0020453A00543A00436F6F6C696E29
:1005B000672E2E2E0048656174696E672E2E2E0000
:1005C0002042403A0020403A00202F003A002054B8
:1005D00000202F0020423A00202F006F6B20543A59
:1005E000000A0A005374616E646172642044657687
:1005F000696174696F6E3A20000A004D65616E3A58
:1006000020000A002020207A3A200000793A2000B9
:10061000783A20003F537065636966696564206EAF
:10062000756D626572206F66206C65677320696EF8
:10063000206D6F76656D656E74206E6F7420706CC2
:1006400061757361626C652E0A003F537065636962
:1006500066696564205920706F736974696F6E20D4
:100660006F7574206F662072616E67652E0A003F99
:10067000537065636966696564205820706F73699B
:1006800074696F6E206F7574206F662072616E677B
:10069000652E0A003F53706563696669656420735F
:1006A000616D706C652073697A65206E6F7420705F
:1006B0006C61757361626C652E0A0046756C6C2006
:1006C000737570706F72742061743A2068747470FE
:1006D0003A2F2F33647072696E74626F6172642E88
:1006E000636F6D2F666F72756D2E7068700A004DA6
:1006F0003438205A2D50726F6265205265706561E2
:10070000746162696C69747920746573742E202039
:100710002056657273696F6E20322E30300A003FAA
:10072000566572626F7365204C6576656C206E6FDE
:100730007420706C61757361626C652E0A002569A6
:10074000206D696E2C2025692073656300456E64F9
:100750002066696C65206C69737400426567696E18
:100760002066696C65206C697374004E6F206D6F34
:1007700076652E004C756C7A426F742054415A2075
:10078000362072656164792E00526573756D696EED
:1007900067207072696E74005761697420666F72A9
:1007A00020757365722E2E2E000A00205A3A200002
:1007B00020593A200020583A2000426564005072C7
:1007C0006F62696E6720646F6E65210020643A2055
:1007D0000020623A200045716E20636F656666698D
:1007E0006369656E74733A20613A200050524F423B
:1007F00045204641494C20434C45414E204E4F5ADE
:100800005A4C450050524F4245204641494C2043E6
:100810004C45414E204E4F5A5A4C45004175746F1D
:10082000206C6576656C696E6700486F6D65205851
:100830002F59206265666F7265205A00486F6D659A
:1008400020582F59206265666F7265205A005A2021
:1008500070726F6265206F75742E20626564005A35
:100860002070726F6265206F75742E20626564005F
:10087000486F6D6520582F59206265666F7265203C
:100880005A00486F6D6520582F59206265666F7257
:1008900065205A0020643A200020623A2000457109
:1008A0006E20636F656666696369656E74733A206E
:1008B000613A2000536C6565702E2E2E0000000AF0
:1008C0000B02090C0D0E08070304010000000000D4
:1008D0000000000000000000000000000000000018
:1008E00000000000000000000012111000000000D5
:1008F00000000000000000000000000000000000F8
:1009000000000000000000000000000000000000E7
:1009100000000000002100240027002A002D0030E4
:1009200000330001010000040107010A01202050EA
:100930006C616E6E65724275666665724279746549
:10094000733A20002046726565204D656D6F72799F
:100950003A20004D61722032392032303137004365
:100960006F6D70696C65643A2000286E6F6E652C3F
:100970002064656661756C7420636F6E66696729B3
:1009800000207C20417574686F723A20004D6172BE
:1009900020323920323031372032333A30343A3154
:1009A0003700204C61737420557064617465643A3B
:1009B0002000312E302E322E3231004D61726C69A2
:1009C0006E0020536F66747761726520526573659F
:1009D0007400205761746368646F672052657365A3
:1009E00074002042726F776E206F757420526573A9
:1009F0006574002045787465726E616C2052657371
:100A0000657400506F77657255700073746172740D
:100A1000006572726F722077726974696E672074F4
:100A20006F2066696C6500656E6473746F70732007
:100A30006869743A205A00205A3A00656E647374EB
:100A40006F7073206869743A20590020593A006524
:100A50006E6473746F7073206869743A2058002054
:100A6000583A00656E6473746F7073206869743AE5
:100A70002000446F6E6520736176696E6720666939
:100A80006C652E006F6B004D3239004D36303000F2
:100A90004368616E67652066696C616D656E7400A0
:100AA0004170707278204C6179657200417070728B
:100AB00078204C617965720046616E2073706565BF
:100AC000640046616E20737065656400466C6F77E4
:100AD00000466C6F770042656400426564004E6FAB
:100AE0007A7A6C65004E6F7A7A6C65005370656532
:100AF00064005370656564004D61696E004D6F76EA
:100B0000652061786973004D38340044697361620F
:100B10006C652073746570706572730047323800BD
:100B20004175746F20686F6D65004D61696E005886
:100B30000059005A004578747275646572004578F2
:100B4000747275646572004D6F7665205A004D6F42
:100B500076652059004D6F76652058004D6F76659B
:100B60002061786973004D6F766520302E316D6D90
:100B7000004D6F766520316D6D004D6F76652031CB
:100B8000306D6D004D6F76656D656E7400526573E6
:100B9000746F726520746F20466163746F727900A0
:100BA0004C6F61642073657474696E677300536180
:100BB00076652073657474696E677300416476614D
:100BC0006E6365642073657474696E6773004D614C
:100BD000696E001000C90210012C01400122017051
:100BE000011801B0010E01F00104015002FA00B039
:100BF00002F0003003E600D003DC009004D2007065
:100C000005C800A006BE000008B400B009AA00D0C4
:100C10000BA000600E960060118C00001582002071
:100C2000197800C01D6E00A0226400B0275A009001
:100C30002C500000314600E0343C00103832009067
:100C40003A2800603C1E00A03D1400803E0A0020AF
:100C50003F000048656174696E67206661696C6574
:100C60006400202D20496E76616C6964206578747B
:100C70007275646572206E756D6265722021001058
:100C800000AD0330016A0150022B0170030A01908C
:100C900004F500B005E500D006D800F007CE00103E
:100CA00009C500300ABE00500BB700700CB10090AF
:100CB0000DAB00B00EA600D00FA200F0109D0010EA
:100CC000129900301395005014920070158E009008
:100CD000168B00B0178700D0188400F0198100101F
:100CE0001B7E00301C7B00501D7900701E7600902A
:100CF0001F7300B0207000D0216E00F0226B001036
:100D0000246900302566005026630070276100903A
:100D1000285E00B0295C00D02A5900F02B56001044
:100D20002D5400302E5100502F4E0070304B00904B
:100D3000314800B0324500D0334200F0343E00105C
:100D4000363B00303737005038330070392E009072
:100D50003A2900B03B2300D03C1B00F03D110010AD
:100D60003F0100F03F00004572723A204D41585457
:100D7000454D50003A204578747275646572207351
:100D800077697463686564206F66662E204D4158EC
:100D900054454D50207472696767657265642021FF
:100DA000004572723A204D494E54454D50003A204C
:100DB00045787472756465722073776974636865C9
:100DC00064206F66662E204D494E54454D50207468
:100DD00072696767657265642021004572723A2006
:100DE0004D415854454D50204245440054656D7066
:100DF00065726174757265206865617465642062EE
:100E00006564207377697463686564206F66662E15
:100E1000204D415854454D50207472696767657282
:100E20006564202121000000000000000000000097
:100E300000000000000000000000000000000000B2
:100E40000000000000000000000C00000000000096
:100E5000000C000000000000001200000000000074
:100E6000002300000000000000210000000000003E
:100E7000004C800000000000005E800000000000C8
:100E8000009240000000000000A1400000000000AF
:100E90000121200000000000027F900000000000FF
:100EA000020010000000000007FFF8000000000032
:100EB000040008000000000008000400000000001A
:100EC0000800060000000000100002000000000002
:100ED000301E010000000000207F810000000000A3
:100EE00041FFE0800000000043FCF08000000000B3
:100EF000873B7840000000018EDBFC6000000001B1
:100F00000FEBCC20000000021FEDB6100000000225
:100F10001FDEB6100000000439CD7F080000000479
:100F200036E0FF08000000087EC0BB840000001807
:100F30007F005D86000000107FC0ED820000002071
:100F40003CC07301000000203B337F0100000070B3
:100F50001BE77E03800000C81DEEDE04C000008891
:100F60000FDEDC04400001240FDF3C0920000126D5
:100F700007DBF8192000027203E7F013900002511A
:100F800001FFE02290000489007F802448000904CA
:100F9000801E004824000BFE400000DFF40010001B
:100FA0004000008002001FFFFFFFFFFFFE00000067
:100FB0000000000000000000000000000000000031
:100FC0000000000000001022103C3C0E1F00102208
:100FD0001004221104001022100822110400102213
:100FE00010083C11040010221010221104001022DD
:100FF0001020221104001E1C1E3C3C0E04000000A8
:1010000000000000000000000000000000000000E0
:1010100000000000000000000000000000000000D0
:1010200000000000000000000000000000000000C0
:1010300000000000000000000000000000000000B0
:1010400000000000000000000000000000000000A0
:101050000000000000000000000000000000000090
:101060000000000001050800FF060121023520FFF5
:10107000FF07FF06FF09005022165680808080007F
:1010800080153353A0A0A00257575050F850F85085
:10109000500257572070A07028702013355580A03B
:1010A00040A02002475740A0A040A0A050251353C5
:1010B0008080801226564080808080401226568094
:1010C00040404040800245559060F0609002555588
:1010D0002020F82020113353604080044151F0114A
:1010E000335340E0400246561010204080801236B4
:1010F0005640A0A0A0A04012365640C0404040E05C
:101100000246566090106080F0024656F020601053
:1011100090600246562060A0F02020024656F080E3
:10112000E01090600246566080E090906002465663
:10113000F01020204040024656609060909060027F
:101140004656609090701060122555C0C000C0C017
:101150001136566060006040801236562040808014
:101160004020034353F000F01236568040202040C8
:101170008012365640A02040004001585830489810
:10118000A8A8904030024656609090F09090024699
:1011900056E090E09090E00246566090808090602B
:1011A000024656E090909090E0024656F080E08033
:1011B00080F0024656F080E08080800246566090C3
:1011C00080B090600246569090F090909012365603
:1011D000E040404040E002465670202020A04002FF
:1011E000465690A0C0A0A090024656808080808085
:1011F000F002465690F0F090909002465690D0F053
:10120000B0B090024656609090909060024656E0D2
:101210009090E08080014757609090D0B0601002BD
:101220004656E09090E090900246566090402090A4
:1012300060123656E0404040404002465690909042
:101240009090600246569090909060600246569052
:101250009090F0F090024656909060609090025608
:1012600056888850202020024656F010204080F0FA
:10127000123656E080808080E00246568080402012
:101280001010123656E020202020E016325240A0E6
:10129000014151F0162252804002445470909070E7
:1012A0000246568080E09090E01234546080806066
:1012B00002465610107090907002445460B0C060A6
:1012C000024656205040E040400145556090701065
:1012D000600246568080E09090901236564000C0E2
:1012E0004040E01137572000202020A04002465601
:1012F000808090E09090123656C040404040E0021E
:101300005454D0A8A8A8024454E0909090024454A9
:1013100060909060014555E090E0808001455570F7
:1013200090701010024454A0D0808012345460C0D9
:1013300020C00246564040E0405020024454909065
:101340009070123454A0A0A04002545488A8A85011
:1013500002445490606090014555909070906002F6
:101360004454F02040F0024757304020C020403025
:10137000221656808080808080024757C0204030EF
:101380004020C006425250A0FFFFFFFFFFFFFFFFBB
:10139000FFFFFFFFFFFFFFFFFFFFFFFFFFFFFFFF5D
:1013A000FFFFFFFFFFFFFFFFFF09005022165680DF
:1013B00000808080800146562070A0A070200246E8
:1013C000562050E04050A002555588705070880259
:1013D00056568850F820F8202217578080800080C9
:1013E00080800247577080E0907010E0173151A064
:1013F00002565670A8C8C8A87014355560A0600081
:10140000E003435350A050123353E02020143151D5
:10141000E002565670E8D8E8D870173151E015331D
:101420005340A04012355540E04000E0143555408F
:10143000A02040E0143555C020C020C016225240E4
:1014400080014555909090E08002565678E8E86813
:10145000282824115180112252408014355540C053
:101460004040E014355540A04000E0034353A050F5
:10147000A0024757808080A060F0200247578080FC
:10148000A0D010207002475780408060A0F020124A
:10149000365640004080A04002475740206090F000
:1014A000909002475720406090F09090024757601C
:1014B000906090F0909002475750A06090F090900C
:1014C00002475790006090F09090024757609060FC
:1014D00090F0909002465670A0A0F0A0B00147573F
:1014E000609080809060400247574020F080E0800C
:1014F000F00247572040F080E080F00247576090AC
:10150000F080E080F00247579000F080E080F01219
:1015100037578040E0404040E01237572040E040DD
:101520004040E012375740A0E0404040E0123757BB
:10153000A000E0404040E00256567048E84848703D
:1015400002475750A090D0B090900247574020607B
:1015500090909060024757204060909090600247C2
:10156000576090609090906002475750A0609090B4
:10157000906002475790006090909060123353A0A3
:1015800040A002465670B0B0D0D0E002475740208D
:101590009090909060024757204090909090600209
:1015A00047576090909090906002475790009090BD
:1015B00090906002575710208850202020024656F5
:1015C00080E09090E0800246566090A0A090A0023B
:1015D000475740200070909070024757204000709D
:1015E00090907002475720500070909070024757BB
:1015F00050A000709090700246565000709090700D
:1016000002475760906070909070025454F068B038
:101610007811355560808060400247574020006057
:10162000B0C06002475720400060B0C0600247571A
:1016300060900060B0C060024656500060B0C0606C
:10164000123757804000C04040E01237572040001A
:10165000C04040E012375740A000C04040E0123682
:1016600056A000C04040E0024757A040A010709034
:101670006002475750A000E09090900247574020EA
:101680000060909060024757204000609090600298
:1016900047576090006090906002475750A00060EC
:1016A00090906002465690006090906012355540D0
:1016B00000E0004002445470B0D0E00247574020A0
:1016C00000909090700247572040009090907002D8
:1016D000475760900090909070024656900090900E
:1016E00090700148582040009090709060014757DA
:1016F0008080E090E080800147579000909070904B
:1017000060436F6F6C646F776E0046616E2073701C
:101710006565640046616E207370656564004265AE
:101720006400426564004E6F7A7A6C65004E6F7A91
:101730007A6C65004D61696E004573746570732F36
:101740006D6D004573746570732F6D6D005A737401
:101750006570732F6D6D005A73746570732F6D6DA6
:10176000005973746570732F6D6D005973746570D3
:10177000732F6D6D005873746570732F6D6D005805
:1017800073746570732F6D6D00412D726574726195
:10179000637400412D7265747261637400416D6100
:1017A00078206500416D6178206500416D61782089
:1017B0007A00416D6178207A00416D61782079006E
:1017C000416D6178207900416D6178207800416D2C
:1017D00061782078005654726176206D696E0056EB
:1017E00054726176206D696E00566D696E00566D9B
:1017F000696E00566D6178206500566D61782065D0
:1018000000566D6178207A00566D6178207A005616
:101810006D6178207900566D6178207900566D6190
:1018200078207800566D617820780056652D6A65BD
:10183000726B0056652D6A65726B00567A2D6A656B
:10184000726B00567A2D6A65726B005678792D6A34
:1018500065726B005678792D6A65726B004163631F
:10186000656C00416363656C005A204F6666736562
:101870007400436F6E66696775726174696F6E009C
:10188000B02000B0200059002D2D3A2D2D20202D04
:101890002D2E2D2500202020313030250020200045
:1018A0000000000000000000000000007FFFE000DA
:1018B00000000000000000000000007000E00000D8
:1018C0000000000000000000000061F8600000005F
:1018D00000000000000000000041F82000000000AF
:1018E000000000000000000040F0200000000000A8
:1018F0000000000000000040602000000000000028
:101900000000000000005801A07F800000000000DF
:1019100000004104005C63A0FFC000000000000064
:10192000002082005EF7A0FFC00000000000000061
:101930002082005EF7A0FFC0000000000000004110
:1019400004005C63A07F80000000000000008208AB
:10195000005801A07F80000000000000010410007A
:10196000406020FFC00000000000000104100040A3
:10197000F020FFC00000000000000082080041F8D5
:1019800020FFC00000000000000041040061F8607A
:101990003F00000000000000000000007000E01E9A
:1019A0000000000000000001FFFF807FFFE00C004E
:1019B00000000000000001FFFF80000000000000A8
:1019C0000000000000000000007FFFE000000000B9
:1019D00000000000000000007000E00000000000B7
:1019E00000000000000000630C6000000000000028
:1019F000000000000000470E200000000000000072
:101A000000000000004F0F20000000000000000058
:101A1000000000005F0FA0000000000000000000B8
:101A20000000005E07A07F80000000000000004171
:101A30000400406020FFC000000000000000208281
:101A40000040F020FFC000000000000000208200E5
:101A500040F020FFC00000000000000041040040F2
:101A600060207F80000000000000008208005E0708
:101A7000A07F80000000000000010410005F0FA0A4
:101A8000FFC0000000000000010410004F0F20FF05
:101A9000C000000000000000820800470E20FFC0C8
:101AA00000000000000000410400630C603F0000E3
:101AB0000000000000000000007000E01E000000B8
:101AC0000000000001FFFF807FFFE00C000000002D
:101AD00000000001FFFF800000005072696E74205A
:101AE00061626F72746564004E6F205344206361BD
:101AF0007264005072696E742066726F6D20534478
:101B00000053746F70207072696E74005265737543
:101B10006D65207072696E74005061757365207018
:101B200072696E7400436F6E66696775726174697D
:101B30006F6E0054656D7065726174757265004DED
:101B40006F76656D656E740054756E6500496E66DE
:101B50006F2073637265656E00060006000600065E
:101B600000060006000600060006003FC01F800FAA
:101B700000060006000F001F803FC006000600069A
:101B80000006000600060006000600060007F80032
:101B90000C0C001002002001006001804000804019
:101BA00003E04001C04000804000004000006000B1
:101BB000002000001000000C0C0007F800001FE0DF
:101BC0000030300040080080040180060100020758
:101BD000C0020380020100020000020000020000B7
:101BE00006000004000008003030001FE0FFFFFF87
:101BF0007F80FFC0FFC0FFC07F807F80FFC0FFC02D
:101C0000FFC03F001E000C005A204F6666736574CB
:101C10000001070E00FE0A018A031E20FFFE0CFED3
:101C20000BFE0E0070321A7A8080808080808000E7
:101C30008080293474A0A0A0A0125A7A505050F885
:101C40005050F8505050016B7B10789494503814D9
:101C500094947810026A7A6494987010203864A47E
:101C600098026A7A304848483064948898643914F5
:101C70007480808080204D7D102040408080808056
:101C80008040402010104D7D80402020101010100A
:101C9000102020408013577720A8702070A82013B0
:101CA0005777202020F8202020202474C040408036
:101CB000165171F821337340E040006D7D04040833
:101CC00008101010202040408080026A7A3048843A
:101CD00084848484844830125A7A2060A020202092
:101CE000202020F8026A7A788484040808102040B2
:101CF000FC026A7AFC040810380404848478026ABE
:101D00007A08182828484888FC0808026A7AFC8063
:101D100080F8840404848478026A7A38408080B829
:101D2000C484848478026A7AFC0408081010202095
:101D30004040026A7A7884844830488484847802F7
:101D40006A7A788484848C74048488702238784019
:101D5000E040000040E040212878C0C00000C040C2
:101D600040801259790810204080402010080564F6
:101D700074FC0000FC1259798040201008102040AB
:101D800080026A7A78848408101010001010026AA9
:101D90007A38449CA4A4A4A49C403C026A7A3048AB
:101DA000848484FC84848484026A7AF0888488F041
:101DB00088848488F0026A7A788484808080808431
:101DC0008478026A7AF08884848484848488F00227
:101DD0006A7AFC808080F080808080FC026A7AFCD5
:101DE000808080F08080808080026A7A788484801D
:101DF000809C84848C74026A7A84848484FC8484C5
:101E0000848484125A7AF82020202020202020F870
:101E1000026A7A1C080808080808888870026A7A2A
:101E2000848890A0C0A090888484026A7A80808090
:101E3000808080808080FC026A7A84CCCCB4B484B8
:101E400084848484026A7A8484C4C4A4948C8C8438
:101E500084026A7A78848484848484848478026A9C
:101E60007AF884848484F880808080006C7C788414
:101E700084848484E4948C780804026A7AF88484E4
:101E80008484F890888484026A7A788484806018D4
:101E900004848478027A7AFE10101010101010104A
:101EA00010026A7A84848484848484848478026AB4
:101EB0007A84848484484848303030125A7A88883A
:101EC00088888888A8A8A850026A7A8484484830FC
:101ED0003048488484125A7A8888885050202020BC
:101EE0002020026A7AFC0408101020404080FC2068
:101EF0004D7DF08080808080808080808080F000B8
:101F00006D7D8080404020202010100808040410BF
:101F10004D7DF01010101010101010101010F00A5D
:101F20006373304884006171FC2A3373804020025F
:101F300067777884047C84847C026A7A808080B8A5
:101F4000C4848484C4B8026777788480808084786D
:101F5000026A7A040404748C8484848C7402677723
:101F6000788484FC808478026A7A18242020F820FF
:101F700020202020006979748888887040B884788F
:101F8000026A7A808080B8C48484848484125A7AF5
:101F9000202000602020202020F8105C7C08080011
:101FA000180808080808888870026A7A8080808883
:101FB00090A0E0908884125A7A602020202020206F
:101FC0002020F8125777D0A8A8A8A8A88802677779
:101FD000B8C4848484848402677778848484848405
:101FE00078006979B8C4848484C4B8808000697931
:101FF000748C8484848C740404026777B8C48480ED
:1020000080808002677778844030088478026A7A1A
:10201000202020F820202020241802677784848440
:1020200084848C74125777888888505020201257E7
:10203000778888A8A8A8A850026777848448304881
:102040008484006979848484848C7404847802672D
:1020500077FC0810202040FC204D7D30404040405F
:102060004080404040404030301D7D8080808080F6
:102070008080808080808080104D7DC02020202046
:1020800020102020202020C009647440A49408FF60
:10209000FFFFFFFFFFFFFFFFFFFFFFFFFFFFFFFF50
:1020A000FFFFFFFFFFFFFFFFFFFFFFFFFFFFFFFF40
:1020B0000E0070321A7A808000808080808080805C
:1020C0000169792078A4A0A0A0A4782012597930C1
:1020D000484040F04040F0480466768478484878AC
:1020E00084125A7A88505020F820F8202020321A82
:1020F0007A80808080000080808080026B7B788482
:102100004030488448300884781B42729090026BBB
:102110007B7884B4CCC4C4C4CCB4847815587870AB
:10212000887888986800F8026777142850A05028AB
:1021300014125474F8080808164171F0026B7B7889
:1021400084F4CCCCF4CCCCCC84781B5171F81944F9
:1021500074609090601256762020F82020F8164780
:1021600077609010204080F01647776090106010E4
:1021700090602A337320408010587888888888D8E7
:10218000A88080105C7C78A8A8A8A868282828289F
:1021900028383711718020237340408026377740DC
:1021A000C040404040E01646766090906000F002EB
:1021B0006777A05028142850A0026A7A40C4484883
:1021C00050242C549C84026A7A40C44848502834D5
:1021D00044889C026A7AC4244830D0244C549C041D
:1021E000006B7B2020002020202040848478026C1B
:1021F0007C20100030488484FC84848484026C7CBD
:1022000010200030488484FC84848484026C7C30F8
:10221000480030488484FC84848484026C7C649804
:102220000030488484FC84848484026B7B480030C2
:10223000488484FC84848484026B7B3048304884E6
:1022400084FC84848484026A7A3C509090FC909050
:1022500090909C006C7C78848480808080848478DA
:102260001020026C7C201000FC808080F880808030
:10227000FC026C7C102000FC808080F8808080FC58
:10228000026C7C304800FC808080F8808080FC02FA
:102290006B7B4800FC808080F8808080FC125C7C36
:1022A000402000F820202020202020F8125C7C1004
:1022B0002000F820202020202020F8125C7C2050D4
:1022C00000F820202020202020F8125B7B5000F80E
:1022D00020202020202020F8027A7A78444242F2FE
:1022E0004242424478026C7C649800C4C4A4A49422
:1022F00094948C8C026C7C20100078848484848478
:10230000848478026C7C10200078848484848484A3
:102310008478026C7C30480078848484848484844B
:1023200078026C7C649800788484848484848478C3
:10233000026B7B4800788484848484848478027768
:102340007782442810284482006E7E0404788C949E
:102350009494A4A4A4C4788080026C7C201000848F
:102360008484848484848478026C7C102000848437
:1023700084848484848478026C7C304800848484DF
:10238000848484848478026B7B480084848484847D
:1023900084848478125C7C1020008888505020202F
:1023A000202020026A7A8080F884848484F88080E7
:1023B000026A7A304848487048444444F8026A7ACD
:1023C0002010007884047C84847C026A7A081000DF
:1023D0007884047C84847C026A7A3048007884049F
:1023E0007C84847C026A7A6498007884047C848487
:1023F0007C02697948007884047C84847C026B7B4D
:10240000304830007884047C84847C0277777C9226
:10241000325E90927C006979788480808084781024
:1024200020026A7A201000788484FC808478026A12
:102430007A102000788484FC808478026A7A30489C
:1024400000788484FC8084780269794800788484E8
:10245000FC808478125A7A402000602020202020BE
:10246000F8125A7A102000602020202020F8125AFA
:102470007A609000602020202020F81259795000C6
:10248000602020202020F8125B7B502050087888A4
:102490008888888870026A7A649800B8C4848484C2
:1024A0008484026A7A201000788484848484780288
:1024B0006A7A10200078848484848478026A7A306E
:1024C000480078848484848478026A7A64980078E6
:1024D000848484848478026979480078848484843C
:1024E00084780265753000FC0030006B7B0408784E
:1024F0009494A4A4C4788080026A7A201000848412
:102500008484848C74026A7A102000848484848495
:102510008C74026A7A30480084848484848C7402C7
:102520006979480084848484848C74006C7C1020D5
:1025300000848444482838109060006C7C8080803F
:10254000B8C4848484C4B88080006B7B48008484D1
:102550004448283810906000060900FE06018902F0
:10256000FE20FFFE07FE06FE000000060007010633
:1025700006060200808080800080030303060103BA
:10258000A0A0A00507070600FF5050F850F85050D3
:102590000509090600FE2070A8A07028A870200672
:1025A00008080600FF40A8481020485408050707FF
:1025B0000600FF6090906098906801030306020394
:1025C0008080800207070602FF4080808080804074
:1025D0000207070602FF8040404040408005050595
:1025E0000600008850F850880505050600002020E8
:1025F000F820200204040602FEC0404080050101CC
:10260000060002F8020202060200C0C00406060626
:102610000100101020408080040606060100609032
:102620009090906003060606010040C0404040E0E4
:102630000406060601006090102040F0040606061D
:102640000100F020601010E00506060600001030C2
:102650005090F810040606060100F080E01010E02B
:102660000406060601006080E090906004060606FD
:102670000100F010102040400406060601006090A2
:1026800060909060040606060100609090701060F3
:10269000020505060200C0C000C0C002070706020E
:1026A000FEC0C000C040408005050506000018605F
:1026B000806018050303060001F800F8050505060B
:1026C0000000C0300830C004070706010060901009
:1026D000604000400506060600007090A8B08070BB
:1026E000050606060000205088F8888805060606BC
:1026F0000000F088F08888F004060606010060906B
:1027000080809060040606060100E090909090E0C2
:10271000040606060100F080E08080F0040606064C
:102720000100F080E08080800406060601006090D1
:1027300080B090600406060601009090F0909090A2
:10274000030606060100E040404040E0050606069C
:10275000000038101010906004060606010090A0DA
:10276000C0A090900406060601008080808080F062
:1027700005060606000088D8A8A88888040606066C
:10278000010090D0B0909090050606060000708879
:1027900088888870040606060100E09090E080803A
:1027A0000407070601FF609090D0B0601004060691
:1027B000060100E09090E09090040606060100609B
:1027C0009040209060050606060000F8202020209A
:1027D0002004060606010090909090906004060682
:1027E000060100909090F0606005060606000088E3
:1027F00088A8A8D888050606060000885020205022
:102800008805060606000088885020202004060659
:10281000060100F010204080F0030606060100E0EB
:1028200080808080E0040606060100808040201041
:1028300010030606060100E020202020E005030327
:102840000600032050880501010600FEF80202027E
:102850000602048040040404060100709090700495
:1028600006060601008080E09090E0040404060162
:1028700000708080700406060601001010709090B1
:102880007004040406010060B0C07004060606016E
:1028900000205040E040400406060601FE60909093
:1028A0007010600406060601008080E0909090039E
:1028B00006060601004000C04040E003080806018B
:1028C000FE200060202020A04004060606010080B3
:1028D00080A0C0A090030606060100C04040404012
:1028E000E0050404060000D0A8A88804040406013A
:1028F00000E0909090040404060100609090600451
:1029000006060601FEE09090E080800406060601BF
:10291000FE709090701010040404060100A0D08096
:102920008004040406010070C030E00406060601BD
:10293000004040E0405020040404060100909090C4
:102940007004040406010090906060050404060011
:102950000088A8A850040404060100906060900458
:1029600006060601FE909090709060040404060133
:1029700000F02040F003070706010020404080409F
:1029800040200107070602FF80808080808080034E
:1029900007070601008040402040408004020206F4
:1029A000010350A0FFFFFFFFFFFFFFFFFFFFFFFF3F
:1029B000FFFFFFFFFFFFFFFFFFFFFFFFFFFFFFFF27
:1029C000FFFFFFFFFF0000000600070106060602EA
:1029D000008000808080800406060601FF2070A031
:1029E000A070200507070600FF304840F04040F87F
:1029F000050505060000A8508850A8050606060033
:102A0000008850F820F8200107070602FF80808028
:102A1000008080800407070601FF708060906010CE
:102A2000E0030101060105A00607070600007884FF
:102A300094A494847803050506010160A06000E079
:102A40000505050600002850A050280403030601D0
:102A500000F01010040101060102F006070706004D
:102A6000007884B4A4A48478040101060105F0046C
:102A700003030601026090600507070600FF20209F
:102A8000F8202000F803050506010140A02040E0E1
:102A9000030505060101C0204020C0020202060213
:102AA0000440800405050601FF9090B0D080050623
:102AB0000606000078E8E8682828010101060202FD
:102AC000800202020602FE40800305050601014065
:102AD000C04040E003050506010140A04000E005BC
:102AE0000505060000A0502850A00508080600FFB4
:102AF00040C04050703078100508080600FF40C004
:102B00004050680810380508080600FFC020403013
:102B1000F030781004070706010020002060809044
:102B200060050707060000402020507088880507D0
:102B3000070600001020205070888805070706004F
:102B40000020502050708888050707060000285094
:102B5000205070888805070706000050002050703C
:102B600088880507070600002050205070888805D7
:102B7000060606000078A0F0A0A0B8040808060128
:102B8000FE609080809060204004070706010040AE
:102B900020F080E080F00407070601002040F0806C
:102BA000E080F00407070601002050F080E080F08C
:102BB0000407070601005000F080E080F0030707DB
:102BC0000601008040E0404040E0030707060100A6
:102BD0002040E0404040E003070706010040A0E03D
:102BE000404040E0030707060100A000E0404040ED
:102BF000E00506060600007048E84848700407072C
:102C000006010050A090D0B0909004070706010084
:102C1000402060909090600407070601002040600B
:102C200090909060040707060100205060909090FB
:102C30006004070706010050A060909090600407B0
:102C400007060100500060909090600505050600A1
:102C50000088502050880408080601FF1070B0B0AA
:102C6000D0D0E080040707060100402090909090AB
:102C700060040707060100204090909090600407D0
:102C8000070601002050909090906004070706010D
:102C900000500090909090600507070600001020FB
:102CA000885020202004060606010080E09090E075
:102CB000800406060601006090A0A090A00407070B
:102CC0000601004020007090907004070706010084
:102CD000204000709090700407070601002050000B
:102CE0007090907004070706010050A0007090904B
:102CF00070040606060100500070909070040707EB
:102D00000601002050207090907005040406000019
:102D100070A8B0780406060601FE7080807020401E
:102D200004070706010040200060B0C070040707D8
:102D300006010020400060B0C070040707060100D3
:102D400020500060B0C0700406060601005000600C
:102D5000B0C070030707060100804000C04040E09B
:102D6000030707060100204000C04040E0030707BA
:102D700006010040A000C04040E003060606010036
:102D8000A000C04040E0040707060100306010705A
:102D900090906004070706010050A000E09090901A
:102DA00004070706010040200060909060040707B8
:102DB00006010020400060909060040707060100B3
:102DC0002050006090906004070706010050A000AA
:102DD00060909060040606060100500060909060CC
:102DE0000505050600002000F80020040404060183
:102DF0000070B0D0E004070706010040200090906A
:102E00009070040707060100204000909090700425
:102E100007070601002050009090907004060606F7
:102E200001005000909090700409090601FE2040B6
:102E3000009090907090600408080601FE8080E089
:102E40009090E080800408080601FE500090909069
:102E500070906053442063617264206F6B006F70E8
:102E6000656E526F6F74206661696C656400766F81
:102E70006C756D652E696E6974206661696C656438
:102E8000004572726F723A00534420696E69742073
:102E90006661696C006563686F3A0043616E6E6FCE
:102EA0007420656E746572207375626469723A206D
:102EB000000102102020080810204010204080024D
:102EC0000102010804020101020408102040808070
:102ED00040201008040201800402018040201008F4
:102EE00004020108040201010204081020408001CC
:102EF00002040810204080100804088010204004BC
:102F00004080102040048000002200250028002B73
:102F1000002E003100340002010000050108010B01
:102F20000105050505070508080808020202020A4E
:102F30000A0808040404040101010101010101035C
:102F400003030303030303040707070C0C0C0C0C17
:102F50000C0C0C0202020206060606060606060B0A
:102F60000B0B0B0B0B0B0B07070A0A0A0A0A0A05C5
:102F700005050404040808020A00207A3A2000200B
:102F8000793A200020783A2000544845524D414C6F
:102F9000204552524F522042454400544845524D1C
:102FA000414C204552524F522045310054686572C1
:102FB0006D616C204572726F722C20737973746529
:102FC0006D2073746F70706564212048656174654D
:102FD000725F49443A200057726974696E672074C1
:102FE0006F2066696C653A20002E006F70656E2058
:102FF0006661696C65642C2046696C653A20002E18
:10300000006F70656E206661696C65642C2046698E
:103010006C653A200046696C652073656C65637465
:103020006564002053697A653A200046696C652022
:103030006F70656E65643A20002E006F70656E20BB
:103040006661696C65642C2046696C653A20004EA7
:103050006F772066726573682066696C653A200038
:103060004E6F7720646F696E672066696C653A20E1
:10307000002220706F73002220706172656E743AB6
:103080002200535542524F5554494E452043414C1E
:103090004C207461726765743A2200747279696EAB
:1030A0006720746F2063616C6C207375622D676399
:1030B0006F64652066696C65732077697468207435
:1030C0006F6F206D616E79206C6576656C732E2054
:1030D0004D4158206C6576656C2069733A004D321D
:1030E00034004D3233202573006175746F25692ECD
:1030F000670053657474696E67732053746F7265EB
:10310000640020643A200020623A2000613A2000E6
:1031100045716E20636F656666696369656E747379
:103120003A002044002049002020204D3330312037
:1031300050005049442073657474696E67733A0097
:10314000205A0020590020204D32303620580048A7
:103150006F6D65206F666673657420286D6D293A02
:1031600000204500205A0020580020420020540032
:1031700020204D323035205300416476616E636506
:1031800064207661726961626C65733A20533D4DCB
:10319000696E20666565647261746520286D6D2FA7
:1031A00073292C20543D4D696E2074726176656CD4
:1031B00020666565647261746520286D6D2F7329C2
:1031C0002C20423D6D696E696D756D207365676D6C
:1031D000656E742074696D6520286D73292C2058E4
:1031E0003D6D6178696D756D205859206A65726B07
:1031F00020286D6D2F73292C20205A3D6D61786930
:103200006D756D205A206A65726B20286D6D2F7365
:10321000292C2020453D6D6178696D756D20452014
:103220006A65726B20286D6D2F7329002054002071
:10323000204D323034205300416363656C65726108
:1032400074696F6E3A20533D616363656C657261AA
:1032500074696F6E2C20543D7265747261637420C2
:10326000616363656C65726174696F6E002045000F
:10327000205A0020590020204D3230312058004D76
:103280006178696D756D20416363656C6572617409
:10329000696F6E20286D6D2F7332293A002045002A
:1032A000205A0020590020204D3230332058004D44
:1032B0006178696D756D20666565647261746573AA
:1032C00020286D6D2F73293A00204500205A0020D8
:1032D000590020204D3932205800537465707320F6
:1032E00070657220756E69743A0053746F7265640C
:1032F0002073657474696E67732072657472696592
:103300007665640048617264636F64656420446537
:103310006661756C742053657474696E6773204CB4
:103320006F61646564000600060006000600060082
:1033300006003FC01F800F00060006000F001F8020
:103340003FC00600060006000600060006004C7599
:103350006C7A426F742054415A2036207265616441
:10336000792E004361726420696E736572746564BE
:103370000000060900FE070199032B20FFFE08FE4E
:1033800007FE00000006000001070706020080801B
:103390008080800080030303060104A0A0A005072D
:1033A000070600005050F850F85050050707060077
:1033B000002070A07028702005070706000048A8AC
:1033C000502050A89005070706000040A0A040A884
:1033D000906801030306020480808003070706014A
:1033E00000204080808040200307070601008040C5
:1033F00020202040800505050600018850F85088EF
:103400000505050600012020F8202003030306011E
:10341000FF604080050101060003F8030303060175
:10342000FF40E04005070706000008081020408024
:10343000800507070600002050888888502005076F
:10344000070600002060A0202020F80507070600DE
:1034500000708808304080F8050707060000F8086B
:10346000103008887005070706000010305090F8EB
:103470001010050707060000F880B0C8088870051E
:103480000707060000304080B0C8887005070706AF
:103490000000F808101020404005070706000070E3
:1034A000888870888870050707060000708898680B
:1034B0000810600307070601FF40E0400040E040BD
:1034C0000307070601FF40E0400060408004070753
:1034D0000601001020408040201005030306000272
:1034E000F800F80407070601008040201020408003
:1034F0000507070600007088102020002005070738
:10350000060000708898A8B08070050707060000C4
:1035100020508888F88888050707060000F048488A
:10352000704848F005070706000070888080808892
:1035300070050707060000F04848484848F00507AE
:1035400007060000F88080F08080F8050707060075
:1035500000F88080F08080800507070600007088F2
:103560008080988870050707060000888888F8889A
:103570008888030707060100E04040404040E0051E
:1035800007070600003810101010906005070706A6
:1035900000008890A0C0A090880507070600008062
:1035A0008080808080F80507070600008888D8A8FA
:1035B0008888880507070600008888C8A898888832
:1035C0000507070600007088888888887005070747
:1035D000060000F08888F08080800508080600FF5B
:1035E0007088888888A87008050707060000F0889A
:1035F00088F0A09088050707060000708880700892
:103600008870050707060000F820202020202005EC
:1036100007070600008888888888887005070706DD
:103620000000888888505050200507070600008851
:103630008888A8A8D8880507070600008888502031
:103640005088880507070600008888502020202021
:10365000050707060000F80810204080F803070758
:10366000060100E08080808080E0050707060000FA
:1036700080804020100808030707060100E0202092
:10368000202020E0050303060004205088050101E6
:103690000600FFF802020206020680400505050644
:1036A000000070087888780507070600008080B061
:1036B000C888C8B0050505060000708880887005B8
:1036C0000707060000080868988898680505050639
:1036D00000007088F8807005070706000030484039
:1036E000F04040400507070600FE78888878088883
:1036F000700507070600008080B0C8888888030727
:10370000070601004000C0404040E00409090601EE
:10371000FE100030101010909060050707060000A2
:1037200080808890E09088030707060100C0404031
:10373000404040E0050505060000D0A8A8A888057F
:103740000505060000B0C888888805050506000044
:1037500070888888700507070600FEB0C888C8B062
:1037600080800507070600FE6898889868080805A5
:103770000505060000B0C88080800505050600002C
:1037800070807008F00507070600004040F04040D8
:1037900048300505050600008888889868050505F5
:1037A000060000888850502005050506000088881E
:1037B000A8A8500505050600008850205088050778
:1037C000070600FE888898680888700505050600C9
:1037D00000F8102040F8040707060100304020C020
:1037E00020403001070706020080808080808080B2
:1037F000040707060100C02040304020C005030335
:1038000006000448A890000000010000000000012C
:1038100000000000000100000000000100000000A6
:103820000001000000000001000000000001000095
:103830000000000100000000000100000000000185
:103840000000000000010000000000010000000076
:103850000001000000000001000000000001000065
:103860000000000100000000000100000000000155
:103870000000000000010000000000010000000046
:103880000001000000000001000000000001000035
:103890000000000100000000000100000000000125
:1038A0000000000000010000000000010000000016
:1038B0000001000000000001000000000001000005
:1038C00000000001000000000001000000000006F0
:1038D00000000107070602008000808080808005CC
:1038E00007070600FF2078A0A0A07820050707069C
:1038F0000000304840E04048B0050505060000885B
:10390000705070880508080600FF88885020F8204D
:10391000202001070706020080808000808080054B
:1039200008080600FF7080E0904838087003010125
:10393000060107A00507070600007088A8C8A88828
:10394000700406060601017090B05000F0060505EF
:103950000600002448904824040202060102F010E8
:10396000040101060103F00507070600007088E85E
:10397000C8C88870050101060007F80303030601A3
:103980000440A0400506060600002020F82020F88C
:1039900004050506010360902040F00405050601BA
:1039A00003E0106010E002020206020640800506F5
:1039B000060600FF888888C8B08005070706000053
:1039C00078E8E8682828280101010602038002023D
:1039D000020602FE408003050506010340C0404088
:1039E000E00406060601016090906000F0060505FF
:1039F00006000090482448900609090600FF40C0D0
:103A00004040E40C143C040609090600FF40C04095
:103A100040E81404081C0509090600FFC0204020E6
:103A2000C818287808050707060000200020204055
:103A300088700508080600004020708888F888888B
:103A40000508080600001020708888F88888050896
:103A5000080600002050708888F888880508080645
:103A6000000048B0708888F88888050808060000BB
:103A70005000708888F888880508080600002050E3
:103A8000708888F888880607070600003C50909CDC
:103A9000F0909C0509090600FE708880808088707F
:103AA000204005080806000040F88080F08080F87B
:103AB00005080806000010F88080F08080F80508EE
:103AC0000806000020F88080F08080F805080806CD
:103AD000000050F88080F08080F80308080601009C
:103AE0008040E040404040E00308080601002040DC
:103AF000E040404040E003080806010040A0E040EC
:103B0000404040E0030808060100A000E0404040BB
:103B100040E0050707060000F04848E84848F0057F
:103B20000808060000285088C8A898888805080852
:103B30000600004020708888888870050808060004
:103B4000001020708888888870050808060000200A
:103B50005070888888887005080806000028507012
:103B600088888888700508080600005000708888DA
:103B700088887005050506000088502050880507D4
:103B800007060000709898A8C8C8700508080600C5
:103B90000040208888888888700508080600001082
:103BA0002088888888887005080806000020500052
:103BB0008888888870050808060000500088888872
:103BC000888870050808060000102088885020208A
:103BD0002005070706000080F088F0808080050738
:103BE00007060000708890A09088B00508080600BD
:103BF000004020007008788878050808060000104A
:103C00002000700878887805080806000020500019
:103C100070087888780508080600002850007008A9
:103C200078887805070706000050007008788878C3
:103C300005080806000020502070087888780605DE
:103C40000506000078147C907C0507070600FE70CE
:103C50008880887020400508080600004020007019
:103C600088F880700508080600001020007088F8A9
:103C700080700508080600002050007088F88070E9
:103C800005070706000050007088F88070030808D8
:103C9000060100804000C0404040E00308080601E3
:103CA00000408000C0404040E0030808060100409A
:103CB000A000C0404040E0060A0A0600FEA4A8009A
:103CC000FC8480808084FC060A0A0600FE5494006E
:103CD000FC8404040484FC05080806000028500045
:103CE000B0C8888888050808060000402000708851
:103CF000888870040A0A0602FE30408090909090F6
:103D0000909090040A0A0600FEC0201090909090B7
:103D1000909090060707060001448C8C8480403CFC
:103D200006070706000188C4C4840408F0050505D9
:103D30000600012000F8002005080806000040F0F9
:103D4000C88888987810050808060000E0F8888878
:103D5000888888F80505050600012030F830200520
:103D600008080600002070F820202020E00509093E
:103D70000600FF2070A8A8B8888850200509090609
:103D800000FFE080C0B0A8A8302828050909060077
:103D9000FFF8A88888888888A8F8050A0A0600FE1F
:103DA000205050505088A8A888707C3C3E5E2B3D27
:103DB0003F2F5B5D3B2C2A225C002200656E7175F3
:103DC00065696E67202200256920686F757273200F
:103DD0002569206D696E7574657300446F6E65208A
:103DE0007072696E74696E672066696C65004C75E7
:103DF0006C7A426F742054415A2036207265616497
:103E0000792E0053544F505045442E200050726973
:103E10006E7465722073746F70706564206475656C
:103E200020746F206572726F72732E20466978203D
:103E3000746865206572726F7220616E642075739C
:103E400065204D39393920746F2072657374617241
:103E5000742E202854656D706572617475726520CA
:103E600069732072657365742E20536574206974BC
:103E70002061667465722072657374617274696E14
:103E80006729004E6F204C696E65204E756D626526
:103E900072207769746820636865636B73756D2C35
:103EA000204C617374204C696E653A20004E6F207F
:103EB000436865636B73756D2077697468206C69FE
:103EC0006E65206E756D6265722C204C6173742076
:103ED0004C696E653A2000636865636B73756D208D
:103EE0006D69736D617463682C204C617374204C30
:103EF000696E653A20004C696E65204E756D62658D
:103F000072206973206E6F74204C617374204C6949
:103F10006E65204E756D6265722B312C204C61737D
:103F200074204C696E653A20004D31313000526585
:103F3000776970696E67005265776970696E6700AE
:103F4000000020002300260029002C002F00320052
:103F50000001000003010601090124F4D43050C31C
:103F60008E20C2A24017828B7011127A910D816C43
:103F7000D90AA861E108C7586607615143061E4B7C
:103F80005D05C145A7041A411104093D9803713923
:103F900031034036DB0265339102D4305402802E67
:103FA0001D02632CEE01752AC501B028A00110275F
:103FB00081018F2564012B244B01E0223401AC21C7
:103FC0001F018D200D01801FFC00841EED00971D38
:103FD000DF00B81CD200E61BC600201BBC00641A20
:103FE000B200B219A8000A19A0006A189900D117E6
:103FF000910040178B00B516840031167E00B31572
:1040000079003A157300C7146F0058146A00EE1354
:1040100066008813630025135E00C7125B006C12F4
:10402000570015125400C111510070114F00211199
:104030004B00D61049008D10470046104400021076
:104040004200C00F4000800F3E00420F3C00060FB0
:104050003B00CB0E3800930E37005C0E3500270E68
:104060003400F30D3200C10D3100900D3000600DB1
:104070002E00320D2D00050D2C00D90C2B00AE0C9E
:104080002900850C29005C0C2700350C27000E0C3C
:104090002600E80B2400C40B2400A00B23007D0B9A
:1040A00023005A0B2100390B2100180B2000F80ABD
:1040B0001F00D90A1E00BB0A1E009D0A1D00800AAF
:1040C0001D00630A1C00470A1B002C0A1B00110A72
:1040D0001A00F7091A00DD091900C4091900AB0913
:1040E0001900920917007B091800630917004C0991
:1040F000160036091600200916000A091500F508F1
:104100001500E0081400CC081400B8081400A40836
:104110001400900813007D0812006B081300580863
:10412000120046081200340811002308110012087A
:10413000110001081100F0071000E0071000D0077F
:104140001000C0071000B0070F00A1071000910772
:104150000E0083070F0074070F0065070E00570756
:104160000E0049070E003B070D002E070E0020072A
:104170000D0013070D0006070D00F9060C00ED06F3
:104180000D00E0060C00D4060C00C8060C00BC06AE
:104190000C00B0060C00A4060B0099060C008D065E
:1041A0000B0082060B0077060B006C060B00610605
:1041B0000A0057060B004C060A0042060A003806A1
:1041C0000A002E060A0024060A001A060A00100633
:1041D000090007060A00FD050900F4050900EB05C2
:1041E0000900E2050900D9050900D0050900C70545
:1041F0000900BE050900B5050800AD050800A505C4
:1042000009009C050800940508008C050800840539
:1042100008007C050800740508006C0507006505AA
:1042200008005D050700560508004E050700470514
:1042300007004005080038050700310507002A057A
:104240000700230507001C050600160507000F05DB
:1042500007000805060002050700FB040600F50438
:104260000700EE040600E8040600E2040700DB0491
:104270000600D5040600CF040600C9040600C304E6
:104280000600BD040600B7040600B1040500AC0436
:104290000600A6040600A00405009B040600950481
:1042A0000500900406008A040500850405008004CA
:1042B00006007A04050075040500700405006B040F
:1042C000050066040500610405005C040500570450
:1042D0000500520405004D04050048040500430490
:1042E00005003E0404003A040500350405003004CE
:1042F00004002C04050027040400230405001E0408
:1043000004001A04040016040500110404000D043E
:104310000400090405000404040000040400FC0374
:104320000400F8030400F4030400F0030400EC03A9
:104330000400E8030400E4030400E0030400DC03D9
:104340000400D8030400D4030400D0030400CC0309
:104350000400C8030300C503030024F404D9201B90
:10436000C40C5C0E9804C4095F0265077101F40572
:10437000F900FB04B30048048700C1036900580337
:10438000550003034500BE023A0084023100530287
:104390002A002902250004022000E4011C00C801B3
:1043A0001900AF0117009801140084011300710176
:1043B00010006101100051010E0043010D00360193
:1043C0000B002B010B0020010B00150109000C0153
:1043D000090003010800FB000800F3000800EB00DF
:1043E0000700E4000600DE000600D8000600D20048
:1043F0000600CC000500C7000500C2000500BD0096
:104400000400B9000400B5000400B1000400AD00D0
:104410000400A9000400A5000300A20003009F00FF
:1044200004009B0003009800030095000200930025
:104430000300900003008D0002008B000300880041
:1044400002008600020084000300810002007F0059
:1044500002007D0002007B0002007900020077006C
:104460000100760002007400020072000100710079
:1044700002006F0002006D0001006C0002006A0083
:10448000010069000200670001006600010065008C
:104490000100640002006200010061000100600090
:1044A00001005F0002005D0001005C0001005B0094
:1044B00001005A0001005900010058000100570096
:1044C0000100560001005500010054000100530096
:1044D0000000530001005200010051000100500093
:1044E00001004F0001004E0000004E0001004D0091
:1044F00001004C0001004B0000004B0001004A008D
:104500000100490001004800000048000100470088
:104510000100460000004600010045000000450083
:10452000010044000100430000004300010042007C
:104530000000420001004100000041000100400075
:1045400001003F0000003F0001003E0000003E006F
:1045500001003D0000003D0001003C0000003C0067
:1045600000003C0001003B0000003B0001003A005D
:1045700000003A0001003900000039000100380055
:10458000000038000000380001003700000037004C
:104590000100360000003600000036000100350042
:1045A0000000350000003500010034000000340038
:1045B000000034000100330000003300000033002D
:1045C0000100320000003200000032000100310022
:1045D0000000310000003100010030000000300018
:1045E0000000300001002F0000002F0000002F000D
:1045F00000002F0001002E0000002E0000002E0001
:1046000001002D0000002D0000002D0000002D00F5
:1046100001002C0000002C0000002C0000002C00E9
:1046200001002B0000002B0000002B0000002B00DD
:1046300001002A0000002A0000002A0000002A00D1
:1046400001002900000029000000290000002900C5
:1046500000002900010028000000280000002800B8
:1046600000002800000028000100270000002700AB
:10467000000027000000270000002700010026009E
:104680000000260000002600000026000000260092
:104690000100250000002500000025000000250085
:1046A0000000250000002500010024000000240077
:1046B000000024000000240000002400010023006A
:1046C000000023000000230000002300000023005E
:1046D000000023000000230001002200000022004F
:1046E0000000220000002200000022000000220042
:1046F0000100210000002100000021000000210035
:104700000000210000002100000021000100200025
:104710000000200000002000000020000000200019
:1047200000002000000020000000200001001F0009
:1047300000001F0000001F0000001F0000001F00FD
:1047400000001F0000001F0001001E0000001E00EE
:1047500000001E0000001E00000020746F6F206C1F
:104760006F6E6720657874727573696F6E207072F2
:104770006576656E7465640020636F6C642065788F
:1047800074727573696F6E2070726576656E74658C
:10479000640045313A200045303A20005A3A200062
:1047A000593A2000583A20004D53312C4D533220B5
:1047B00050696E730A006F6B004B494C4C45442E98
:1047C00020005072696E7465722068616C74656453
:1047D0002E206B696C6C28292063616C6C656421E8
:1047E0000053544F505045442E20005072696E744F
:1047F00065722073746F70706564206475652074D1
:104800006F206572726F72732E204669782074680B
:1048100065206572726F7220616E64207573652009
:104820004D39393920746F20726573746172742E3A
:10483000202854656D7065726174757265206973A6
:104840002072657365742E2053657420697420612D
:10485000667465722072657374617274696E67291B
:10486000000000964300809743000087430000A0AB
:10487000C10000A0C1000000000000A0C10080979E
:1048800043000000000000A0400000A04000000025
:10489000400000A0430080A14300008743FF01FFC8
:1048A0002200656E717565696E6720220000002127
:1048B00010422063308440A550C660E7700881290B
:1048C000914AA16BB18CC1ADD1CEE1EFF1311210A3
:1048D0000273325222B5529442F772D6623993185B
:1048E000837BB35AA3BDD39CC3FFF3DEE3622443AF
:1048F0003420040114E664C774A44485546AA54BAB
:10490000B528850995EEE5CFF5ACC58DD553367242
:104910002611163006D776F6669556B4465BB77AFA
:10492000A719973887DFF7FEE79DD7BCC7C448E5CE
:10493000588668A7784008611802282338CCC9ED4A
:10494000D98EE9AFF9488969990AA92BB9F55AD4E2
:104950004AB77A966A711A500A333A122AFDDBDC9A
:10496000CBBFFB9EEB799B588B3BBB1AABA66C87EE
:104970007CE44CC55C222C033C600C411CAEED8FEA
:10498000FDECCDCDDD2AAD0BBD688D499D977EB682
:104990006ED55EF44E133E322E511E700E9FFFBE3A
:1049A000EFDDDFFCCF1BBF3AAF599F788F8891A90D
:1049B00081CAB1EBA10CD12DC14EF16FE18010A1E4
:1049C00000C230E3200450254046706760B98398E8
:1049D00093FBA3DAB33DC31CD37FE35EF3B1029034
:1049E00012F322D2323542145277625672EAB5CBB4
:1049F000A5A89589856EF54FE52CD50DC5E234C384
:104A000024A01481046674476424540544DBA7FA87
:104A1000B79987B8975FE77EF71DC73CD7D326F2D3
:104A2000369106B01657667676154634564CD96DD3
:104A3000C90EF92FE9C899E9898AB9ABA944586523
:104A40004806782768C018E1088238A3287DCB5C27
:104A5000DB3FEB1EFBF98BD89BBBAB9ABB754A5473
:104A60005A376A167AF10AD01AB32A923A2EFD0FF3
:104A7000ED6CDD4DCDAABD8BADE89DC98D267C07C3
:104A80006C645C454CA23C832CE01CC10C1FEF3EC7
:104A9000FF5DCF7CDF9BAFBABFD98FF89F176E3613
:104AA0007E554E745E932EB23ED10EF01E4D3234C2
:104AB000004D323320257300F92E2E004D61696EB2
:104AC00000526573656E643A2000D500D30011244E
:104AD0001FBECFEFD1E2DEBFCDBF00E00CBF15E0BF
:104AE000A0E0B2E0EEEEF2E202E00BBF02C00790FF
:104AF0000D92A837B107D9F725E1A8E7B5E001C0C5
:104B00001D92A53CB207E1F715E2C6E6D5E200E04A
:104B100006C021970109802FFE010F94AB10C53606
:104B2000D10780E00807A9F70E94CBFC0D9466111D
:104B30000C9400002F923F924F925F926F927F925F
:104B40008F929F92AF92BF92CF92DF92EF92FF929D
:104B50000F931F93CF93DF93CDB7DEB7CF54D140E0
:104B60000FB6F894DEBF0FBECDBF87E40E9432C3FC
:104B7000782E882311F40C94093B0E9458C30F949B
:104B80004C0E6B31710509F483C1C4F462307105B8
:104B900009F41FC124F477FF34C00C949F5A643089
:104BA000710509F42EC10CF420C16A31710511F0B0
:104BB0000C949F5A109287050C949F5A6E31710580
:104BC00011F40C94303A54F46C31710509F48EC22E
:104BD0006D31710509F419C60C949F5A6B35710536
:104BE00011F40C94A83A6C35710511F40C94AD3A9B
:104BF0006A35710511F00C949F5A10925B150C9454
:104C00009F5A8091370781110C949F5A0E94BEF2DF
:104C100086E995E10E9477EE0E949FCB6093641530
:104C2000709365158093661590936715C0909615DF
:104C3000D0909715E0909815F0909915C450DF4FDB
:104C4000C882D982EA82FB82CC5FD040A70196015C
:104C500060916C0F70916D0F80916E0F90916F0F3E
:104C60000F94910940909A1550909B1560909C1557
:104C700070909D15E0909E15F0909F150091A015E5
:104C80001091A115C050DF4FE882F9820A831B837F
:104C9000C050D14081117EC0A30192016091700F7C
:104CA0007091710F8091720F9091730F0F94910911
:104CB000811170C020E030E040E752E4609198023A
:104CC0007091990280919A0290919B020F94DB0D52
:104CD0004B015C0182E397E09F938F93A2EACA2E77
:104CE000A5E1DA2EC050DF4FE880F9800A811B81F0
:104CF000C050D140A3019201C450DF4F6881798137
:104D00008A819B81CC5FD0400E9428DC0F900F905D
:104D10008091961590919715A0919815B09199153D
:104D200080936C0F90936D0FA0936E0FB0936F0FE5
:104D300080919A1590919B15A0919C15B0919D150D
:104D40008093700F9093710FA093720FB093730FB5
:104D500080919E1590919F15A091A015B091A115DD
:104D60008093740F9093750FA093760FB093770F85
:104D70008091A2159091A315A091A415B091A515AD
:104D80008093780F9093790FA0937A0FB0937B0F55
:104D90000C949F5A6091140270911502072E000C1A
:104DA000880B990B0F9497092091980230919902E2
:104DB00040919A0250919B020F94A30420E030E0AE
:104DC00040E752E40F94DB0D20E030E048EC52E481
:104DD0007DCF8091370781110C949F5A0E949FF3D9
:104DE00081E00E9409EF0C949F5A8091370781114E
:104DF0000C949F5A0E949FF380E00E9409EF0C944C
:104E00009F5A84EB98E00E94DCAF80E50E9432C399
:104E1000882339F00E9458C30F94520E6B017C0115
:104E200003C0C12CD12C760183E50E9432C38823B4
:104E300061F00E9458C320E030E04AE754E40F9448
:104E4000A3040F94520E6B017C010E9401EC0E949E
:104E50009FCBC60ED71EE81EF91E0E949FCB609303
:104E600064157093651580936615909367150E947D
:104E70009FCB6C157D058E059F0510F00C949F5AF5
:104E80000E94E27480E00E9428ED0E94F2AFEFCF12
:104E900081E40E9432C3882351F00E9458C360937A
:104EA0004C0F70934D0F80934E0F90934F0F82E4F1
:104EB0000E9432C3882351F00E9458C36093500F60
:104EC0007093510F8093520F9093530F84E40E947C
:104ED00032C3882351F00E9458C36093540F7093DB
:104EE000550F8093560F9093570FEEE9F8E0849199
:104EF000882341F09091C00095FFFCCF8093C600BD
:104F00003196F5CF60914C0F70914D0F80914E0FFF
:104F100090914F0F46E00E94CE8EE9E9F8E084912F
:104F2000882341F09091C00095FFFCCF8093C6008C
:104F30003196F5CF6091500F7091510F8091520FC3
:104F40009091530F46E00E94CE8EE4E9F8E0849100
:104F5000882341F09091C00095FFFCCF8093C6005C
:104F60003196F5CF6091540F7091550F8091560F87
:104F70009091570F46E00E94CE8E8091C00085FF31
:104F8000FCCF8AE08093C60080E00E94B1940E942A
:104F900011AB8CE49FE00F94EC050E9401EC2FB75D
:104FA000F8946091640F7091650F8091660F9091F5
:104FB000670F2FBF0F9497092091A80F3091A90F69
:104FC0004091AA0F5091AB0F0F94DB0D4B015C0188
:104FD0007E0108EFE00EF11C20E030E0A9016091B5
:104FE0006C0F70916D0F80916E0F90916F0F0F94F9
:104FF000F40CD7016D937D938D939C9313976E0161
:10500000B4EFCB0ED11C20E030E0A9016091700F0D
:105010007091710F8091720F9091730F0F94F40C37
:10502000F60160837183828393838E0100511F4F49
:105030008091740F9091750FA091760FB091770FBA
:10504000F80180839183A283B3831F930F93DF9230
:10505000CF92FF92EF922DB73EB7245231090FB68F
:10506000F8943EBF0FBE2DBFADB7BEB7119684E218
:10507000E0E3F2E001900D928A95E1F70E947AABAD
:10508000A5019401D8016D917D918D919C910F9412
:10509000F30C2091740F3091750F4091760F509161
:1050A000770F0F94F40C7B018C016093740F709355
:1050B000750F8093760F9093770F0FB6F894DEBF3D
:1050C0000FBECDBF2091700F3091710F4091720FC4
:1050D0005091730F60916C0F70916D0F80916E0FF6
:1050E00090916F0F0E94C8930C949F5A0E94AC96A7
:1050F0001092391084E190E090936A0280936902E3
:105100008091980290919902A0919A02B0919B028D
:105110008093830590938405A0938505B0938605BD
:1051200080911402909115029093820580938105DD
:1051300084E690E090931502809314020E949FCB26
:105140006093641570936515809366159093671549
:1051500081E08093110280906C0F90906D0FA09071
:105160006E0FB0906F0F8092961590929715A09247
:105170009815B09299152090700F3090710F409053
:10518000720F5090730F20929A1530929B15409297
:105190009C1550929D156091740F7091750F8091C0
:1051A000760F9091770F60939E1570939F15809363
:1051B000A0159093A1150091780F1091790F20916F
:1051C0007A0F30917B0F0093A2151093A3152093B3
:1051D000A4153093A51520E030E040EA50E40F9488
:1051E000910987FF92C020E030E048E951ECC50109
:1051F000B4010F94910981110BC020E030E041E827
:1052000053E4C201B1010F949109882309F47DC0D0
:10521000EFE9F8E4E4910BEFE002F0011124BF01A3
:10522000FF0F880B990B0F94970960939E1570934D
:105230009F158093A0159093A11580E090E0A8ECB5
:10524000B2E48093980290939902A0939A02B0934B
:105250009B028091B20F811108C01092740F1092BE
:10526000750F1092760F1092770FE090740FF090F8
:10527000750F0091760F1091770FA2019101C50172
:10528000B4010E94C8938090980290909902A090D7
:105290009A02B0909B02E0909E15F0909F150091AD
:1052A000A0151091A1152091700F3091710F4091B0
:1052B000720F5091730F60916C0F70916D0F809110
:1052C0006E0F90916F0FE2E3F7E0FF93EF93F8E733
:1052D000CF2EFFE0DF2E0E9428DC0E9401EC0F9011
:1052E0000F908091B20F882341F01092740F1092AA
:1052F000750F1092760F1092770F10929E151092E4
:105300009F151092A0151092A1151092980210925C
:10531000990210929A0210929B0288E50E9432C371
:10532000882329F08091B00F81110CC020C089E53D
:105330000E9432C38111F6CF8AE50E9432C38111E7
:10534000F1CF36C08091B10F882389F020E030E0A2
:1053500048E951EC60916C0F70916D0F80916E0F68
:1053600090916F0F0F949109882361F006C08AE530
:105370000E9432C381111CC0E9CF8AE50E9432C36A
:10538000811116C020E030E041E853E46091700FD5
:105390007091710F8091720F9091730F0F9491091A
:1053A000811102C0712C04C08AE50E9432C3782E9C
:1053B0007092080271100C94A25A89E50E9432C3BF
:1053C00081110C94A25A8091080281110C94A85A60
:1053D00088E50E9432C381110C94A85A88E50E9486
:1053E00032C38823D1F00E944DC3672B682B692BF1
:1053F000A1F00E9458C320918A1530918B154091DD
:105400008C1550918D150F94F40C60936C0F709364
:105410006D0F80936E0F90936F0F89E50E9432C3DA
:105420008823D1F00E944DC3672B682B692BA1F014
:105430000E9458C320918E1530918F154091901580
:10544000509191150F94F40C6093700F7093710F3D
:105450008093720F9093730F80910802882309F450
:1054600099C080E090E0A8E9B1EC80939615909304
:105470009715A0939815B093991580E090E0A1E856
:10548000B3E480939A1590939B15A0939C15B093C9
:105490009D1580E090E0A8E4B2E480939802909398
:1054A0009902A0939A02B0939B02E090740FF0903F
:1054B000750F0091760F1091770F2091700F30913A
:1054C000710F4091720F5091730F60916C0F70913A
:1054D0006D0F80916E0F90916F0F0E94C893809016
:1054E000980290909902A0909A02B0909B02E0904E
:1054F000740FF090750F0091760F1091770F209137
:105500009A1530919B1540919C1550919D15609175
:105510009615709197158091981590919915E2E3E1
:10552000F7E0FF93EF93E2EACE2EE5E1DE2E0E9454
:1055300028DC0E9401EC8091961590919715A0911E
:105540009815B091991580936C0F90936D0FA0935F
:105550006E0FB0936F0F80919A1590919B15A0914B
:105560009C15B0919D158093700F9093710FA0932F
:10557000720FB093730F81E08093381024982C9AA7
:1055800082E090E00E9414F7249A2C981092381030
:105590000F900F908AE50E9432C3882309F48EC0D1
:1055A0008091080281118AC08091B00F882311F484
:1055B0000C94AE5A8091B10F882311F40C94AE5A1A
:1055C00080906C0F90906D0FA0906E0FB0906F0F49
:1055D00020E030E0A901C501B4010F94F40C6B0187
:1055E0007C0120E030E040EA51EC0F94380F87FF57
:1055F00002C00C94D15A20E030E046E953E4C701E0
:10560000B6010F949109181614F40C94D15A4090D5
:10561000700F5090710F6090720F7090730F20E0B8
:1056200030E0A901C301B2010F94F40C6B017C01BD
:1056300020E030E040EA51EC0F94380F87FF02C0C1
:105640000C94D15A20E030E847E953E4C701B60191
:105650000F949109181614F40C94D15A1092740FE7
:105660001092750F1092760F1092770FE12CF12C9B
:105670008701A3019201C501B4010E94C8938091E2
:10568000B7099091B809A091B909B091BA0980936E
:10569000980290939902A0939A02B0939B020E9461
:1056A00001EC81E08093381024982C9A82E090E0FD
:1056B0000E9414F7249A2C9810923810E090740FDE
:1056C000F090750F0091760F1091770F2091700F69
:1056D0003091710F4091720F5091730F60916C0F68
:1056E00070916D0F80916E0F90916F0F0E94C89313
:1056F0008091080281110C94F85A8AE50E9432C305
:1057000081110C94F85A8091080281110C943F5B2E
:105710008AE50E9432C381110C943F5B8AE50E94A6
:1057200032C38823D1F00E944DC3672B682B692BAD
:10573000A1F00E9458C32091921530919315409189
:105740009415509195150F94F40C6093740F709309
:10575000750F8093760F9093770FE090740FF09011
:10576000750F0091760F1091770F2091700F309187
:10577000710F4091720F5091730F60916C0F709187
:105780006D0F80916E0F90916F0F0E94C8931092D1
:105790003107109230071092431510924415109261
:1057A0004515109246158091830590918405A0912E
:1057B0008505B09186058093980290939902A093F5
:1057C0009A02B0939B0280918105909182059093FB
:1057D0001502809314020E949FCB6093641570930E
:1057E000651580936615909367151092AC0510921D
:1057F000AB051092AA0510929D0582E390E090936C
:105800006A02809369020C949F5A0898109A0E9429
:10581000AC9684E190E090936A0280936902809153
:10582000B00F882321F08091B10F811127C08CE344
:1058300098E00E94DCAFE5E9FEE28491882341F024
:105840009091C00095FFFCCF8093C6003196F5CFB4
:10585000EAE2F8E08491882341F09091C00095FF3E
:10586000FCCF8093C6003196F5CF8091C00085FFB4
:10587000FCCF8AE08093C6000C949F5A0E9401ECF2
:105880000E94AC96CE018C519F4F0E9438DBCC51C8
:10589000DF4F688179818A819B81C45ED0406093AB
:1058A0006C0F70936D0F80936E0F90936F0FC851B4
:1058B000DF4F288139814A815B81C85ED0402093C7
:1058C000700F3093710F4093720F5093730FC45148
:1058D000DF4FE880F9800A811B81CC5ED040E092E6
:1058E000740FF092750F0093760F1093770F0E944C
:1058F000C8930E947CC080E090E0A0EFB3E4809366
:10590000980290939902A0939A02B0939B0227EF7A
:105910003FEFC450DF4F39832883CC5FD04031E064
:10592000C050DF4F3883C050D140C12CD12C809162
:105930008005882349F080917F05882329F04FEF67
:10594000C416D40609F4CEC1C050DF4F5881C050F0
:10595000D140511117C087ED9EEFCC5FDE4F998388
:105960008883C450D140A0E2B1E0C85FDE4FB98364
:10597000A883C850D140B1E0C050DF4FB883C050B9
:10598000D14015C0E9E2F1E0CC5FDE4FF983E88356
:10599000C450D14007EF1FEFC85FDE4F1983088363
:1059A000C850D140C050DF4F1882C050D14096013E
:1059B000220F331F220F331FCA5EDE4F3983288325
:1059C000C651D14041E050E04C0F5D1F420F531FC4
:1059D000C45FDE4F59834883CC50D140212C312CF9
:1059E000C450DF4F88819981CC5FD040092E000CD4
:1059F000AA0BBB0BC85EDE4F88839983AA83BB8347
:105A0000C851D140C114D10489F48CE198E00E94BE
:105A1000DCAFE12CF12C00EA10E4C25FDE4FE8823B
:105A2000F9820A831B83CE50D14016C020E030E0BB
:105A300040EA50E46091740F7091750F8091760F79
:105A40009091770F0F94F40CC25FDE4F68837983D7
:105A50008A839B83CE50D140C85EDE4F68817981B6
:105A60008A819B81C851D1400F9497094B015C01F9
:105A7000C85FDE4F08811981C850D140B801110FAD
:105A8000880B990B0F9497092B013C0111E010939F
:105A900039102091700F3091710F4091720F509119
:105AA000730F60916C0F70916D0F80916E0F9091DC
:105AB0006F0FC25FDE4FE880F9800A811B81CE50F4
:105AC000D1400E94A8C0E090740FF090750F009133
:105AD000760F1091770FA5019401C301B2010E94C6
